:020000040000FA
:020000000528D1
:040002000034003492
:020008004D2881
:06000A00831603130F3002
:100010008600870181130F3095008B178B150F30E9
:100020009600831603138801831603178901831230
:100030000313860187010714A601831203138801A5
:10004000212823202128261C080006080F39A40097
:10005000A500A201A30134200310220823072307CF
:100060002307870026100800A50C031C3E28A20ABF
:1000700003302202031D3428A201572823085A20E6
:10008000860006080F39240203195728A30A0430F2
:100090002302031D3E28A30157280B1C53285F2071
:1000A000A6185328261406080B1008140900860108
:1000B000261008008207E034D034B0347034A6141F
:1000C000061CA610861CA610061DA610861DA610CE
:0200D000080026
:02400E00F23F7F
:02401000FF3F70
:00000001FF
